:020000040800F2
:10000000882D00200501000879100008A90F0008BC
:1000100075100008F7060008211100080000000014
:10002000000000000000000000000000A91000080F
:10003000FB060008000000007D100008AB1000085F
:100040001F0100081F0100081F0100081F01000810
:100050001F0100081F0100081F0100081F01000800
:100060001F0100081F0100081F0100081F010008F0
:100070001F0100081F0100081F0100081F010008E0
:100080001F0100081F0100081F0100081F010008D0
:100090001F0100081F0100081F0100081F010008C0
:1000A0001F0100081F0100081F0100081F010008B0
:1000B0001F0100081F0100081F0100081F010008A0
:1000C0001F0100081F0100081F0100081F01000890
:1000D0001F0100081F0100081F0100081F01000880
:1000E0001F0100081F0100081F010008DFF810D0E1
:1000F00000F046FA0048004709230008AFF30080EB
:10010000882D00200648804706480047FEE7FEE7A6
:10011000FEE7FEE7FEE7FEE7FEE7FEE7FEE7FEE7B7
:100120001F110008ED000008202A04DB203A21FA04
:1001300002F00021704721FA02F3D040C2F1200200
:100140009140084319467047D2B201E000F8012BF4
:10015000491EFBD270470022F6E710B513460A4647
:1001600004461946FFF7F0FF204610BD0022CBB22F
:100170000178994200D10246401C0029F8D110466E
:10018000704730B50B46014600202022012409E0CB
:1001900021FA02F59D4205D303FA02F5491B04FA40
:1001A00002F52844151EA2F10102F1DC30BD2DE953
:1001B000F05F0546002092469B46884606468146EB
:1001C00040241BE02846414647462246FFF7ACFF45
:1001D00053465A46C01A914110D31146184622463A
:1001E00000F0E0F92D1A67EB01084F462246012086
:1001F000002100F0D7F917EB00094E41201EA4F1B1
:100200000104DFDC484631462A464346BDE8F09FFC
:100210002DE9FE4F804681EA0300C00F0C46009096
:1002200021F0004123F00045B8EB0200A94105D2BE
:100230004046214690461C460B46024623F00040AD
:10024000104347D0270DC7F30A00C3F30A510290A9
:10025000401A019040286BDAC3F3130040F4801B6E
:100260000098924620B10023D2EB030A63EB0B0BFC
:1002700001985946C0F14002504600F093F90646F5
:100280000D4650465946019A00F09BF910EB0800C4
:100290006141002487EA115284EAE7731A4340D08F
:1002A000009A62B3019A012A4FEA075215DC001B3B
:1002B00061EB02014FF0004202EA0752CDE9004231
:1002C000001C41F5801132462B4600F09BF903B02B
:1002D000BDE8F08F40462146F9E7001B61EB0201C3
:1002E000001C41F5801300185B412018A2F500178F
:1002F00047EB030140EAD570B6196D4111E06D0876
:100300004FEA360645EAC0754FEA0752001B61EB1B
:100310000201001C41F5801149084FEA3000001924
:10032000514132462B4603B0BDE8F04F00F05BB9B7
:100330000098012240000023D0EB020263EBE0733F
:10034000009821464FEAE074B8EB000061EB04012D
:10035000E9E783F000435BE781F0004158E72DE9CE
:10036000FE4F81EA030404F0004421F000410094B0
:100370004FF0000B23F0004350EA01045ED052EA34
:1003800003045BD0C3F30A54C1F30A552C44A4F20E
:10039000F3340194A0FB0254C1F3130141F4801122
:1003A000C3F3130343F4801301FB024400FB034E29
:1003B000840A970A44EA815447EA8357A4FB0768F2
:1003C00002958D0A05FB07854FEA932C04FB0C541C
:1003D0002705029D4FEA065847EA1637B5EB080590
:1003E0006EEB070C870E920E47EA811742EA8312E2
:1003F000A7FB0201B6EB0B0164EB00042B0D43EAF3
:100400000C335E1844EB1C50DA465146E7FB020100
:10041000C5F313044FEA0B3343EA14534FEA043293
:10042000019C43EA0603A4F10C040294009CCDE96C
:1004300000B400F0E7F803B0BDE8F08F00200146FB
:10044000F9E72DE9F04D81EA030404F0004B21F0B7
:10045000004514464FF0000A23F0004150EA05021F
:1004600020D054EA01021DD0C5F30A570246C5F355
:100470001303C1F31300C1F30A5640F4801543F48B
:100480008013A7EB0608101BD64608F2FD3873EB65
:10049000050002D308F1010801E092185B41B8F1B0
:1004A000000F03DA00200146BDE8F08D00204FF474
:1004B0008011064684460EE0171B73EB050705D333
:1004C000121B63EB050306434CEA010C49084FEA93
:1004D000300092185B4150EA0107EDD152EA030067
:1004E00012D082EA040083EA0501084305D0101BFC
:1004F000AB4106D20122002306E000224FF0004368
:1005000002E06FF0010253101AEB06004CEB0851A9
:1005100010EB0A0041EB0B01BDE8F04D00F063B8B1
:10052000C1F30A52C1F3130140F2FF3341F48011C9
:100530009A4202DA00200146704740F233439A4261
:10054000A2F2334202DC5242FFF7EEBD00F02AB8BD
:1005500030B5041E71F1000404DB4FF0004440424A
:1005600064EB0101141E73F1000405DB1C464FF01F
:100570000043524263EB0403994208BF904230BDEE
:10058000064C074D06E0E06840F0010394E80700E0
:1005900098471034AC42F6D3FFF7ACFD1C2B000893
:1005A0003C2B0008202A04DB203A00FA02F100204C
:1005B00070479140C2F1200320FA03F319439040A1
:1005C0007047202A06DBCB17203A41FA02F043EAB3
:1005D000E07306E041FA02F3D040C2F120029140FC
:1005E00008431946704710B5141E73F1000408DA69
:1005F000401C41F1000192185B411A4301D120F0E7
:10060000010010BD2DE9F04D92469B4611B1B1FAA3
:1006100081F202E0B0FA80F220329046FFF7C2FF8A
:1006200004460F4640EA0A0041EA0B0153465A4687
:10063000084313D0114653EA010019D0C8F1400213
:100640005046FFF771FD05460E4650465946424654
:10065000FFF7A8FF084305D0012004E020463946F3
:10066000BDE8F08D0020054346EAE0762C43374391
:100670000A986305E40AA0EB08000022FD0A44EA98
:1006800047540A3002D500200146E9E70105101958
:100690006941DDE9084500196941BDE8F04DA2E76F
:1006A00070B58C1810F8015B15F0070301D110F834
:1006B000013B2A1106D110F8012B03E010F8016B61
:1006C00001F8016B5B1EF9D12B0705D40023521EE4
:1006D0000DD401F8013BFAE710F8013BCB1A921C4C
:1006E00003E013F8015B01F8015B521EF9D5A1424A
:1006F000D8D3002070BD00BFFEE7704772B600BFC0
:10070000FEE72DE9F04105460C46164605F11400BA
:10071000216850F8210032784FF0FF31914000EA13
:1007200001074FF0000867B1384601F0CFFD306097
:1007300005F17400216800EBC110316850F8218088
:100740001DE02278521C4FF0FF339340296901EAE3
:10075000030001F0BBFD2060206800280FDD05F1DB
:100760001401226851F8220001F0B0FD306005F15B
:100770007400216800EBC110316850F821804046B8
:10078000BDE8F081014800687047000000000020CB
:100790000348006803490978084401490860704724
:1007A000000000200800002010B50848006840F054
:1007B000100006490860032000F098F80F2000F0B0
:1007C00007F800F02BF8002010BD000000200240C8
:1007D00070B504460E4800784FF47A71B1FBF0F022
:1007E0000C490968B1FBF0F5284600F0C3FB08B1DD
:1007F000012070BD102C07D200222146501E00F0AF
:1008000037F80548046001E00120F2E70020F0E736
:10081000080000200C0000200400002008B500BFE4
:100820001148806940F001000F49886108468069DD
:1008300000F00100009000BF00BF00BF0846C06983
:1008400040F08050C8610846C06900F080500090B8
:1008500000BF00BF00BF0549486820F0E06040F0DD
:100860000070486000BF08BD001002400000014059
:100870002DE9F05F80460D461646002700F096FCF5
:10088000074639462A46334601F00700C0F1070AF9
:10089000BAF1040F02D94FF0040A01E0C0F1070ACF
:1008A000D14600F1040ABAF1070F02D24FF0000A54
:1008B00001E0A0F1030AD4464FF0010A0AFA09FA4E
:1008C000AAF1010A0AEA020A0AFA0CFA4FF0010B2D
:1008D0000BFA0CFBABF1010B0BEA030B4AEA0B041E
:1008E0002146404600F06AFCBDE8F09F00BF00F0E2
:1008F0000702064B19684FF6FF031940044B0B43E0
:1009000043EA0221014B196000BF70470CED00E083
:100910000000FA0570B504460D460CB9012070BD03
:100920005A48006800F00700A8420ED257480068F5
:1009300020F007002843554908600846006800F089
:100940000700A84201D00120E9E7207800F002006A
:1009500002281DD1207800F00400042805D14C485D
:10096000406840F4E0604A494860207800F00800A0
:10097000082805D14648406840F460504449486022
:100980004348406820F0F000A168084340494860AF
:10099000207800F0010078B36068012806D13C4857
:1009A000006800F4003090B90120B8E760680228C0
:1009B00006D13748006800F0007040B90120AEE76A
:1009C0003348006800F0020008B90120A7E730486A
:1009D000406820F00300616808432D494860FFF734
:1009E000D1FE064609E0FFF7CDFE801B41F28831BB
:1009F000884202D9032092E707E02548406800F0CA
:100A00000C006168B0EB810FEDD12048006800F068
:100A10000700A8420ED91D48006820F007002843AF
:100A20001A4908600846006800F00700A84201D093
:100A3000012074E7207800F00400042807D114484E
:100A4000406820F4E060E16808431149486020787C
:100A500000F00800082808D10D48406820F46050D4
:100A6000216940EAC1000A49486000F019F80849C4
:100A70004968C1F30311074A515CC8400649086040
:100A800006480068FFF7A4FE002048E70020024067
:100A9000001002409A2600080C00002004000020EC
:100AA00070B500210022002400230020134D696846
:100AB00001F00C05F5B1042D02D0082D19D101E08B
:100AC0000F4819E00F4DC1F38346AB5D01F480354B
:100AD00055B10A4D6D68C5F340450B4E725D084D2A
:100AE0005D43B5FBF2F402E0084D03FB05F420463C
:100AF00002E000BF024800BF00BF70BD001002400E
:100B000000127A00882600089826000800093D0097
:100B1000F8B504460CB90120F8BD207800F00100BA
:100B2000002878D0F848406800F00C0004280CD069
:100B3000F548406800F00C00082811D1F2484068E0
:100B400000F48030B0F5803F0AD1EF48006800F42F
:100B5000003000285FD0606800285CD10120DBE70E
:100B600000BF6068B0F5803F06D1E748006840F4F8
:100B70008030E549086028E0606858B9E2480068BC
:100B800020F48030E04908600846006820F48020A6
:100B900008601AE06068B0F5A02F0BD1DA48006851
:100BA00040F48020D84908600846006840F480304E
:100BB00008600AE0D448006820F48030D249086018
:100BC0000846006820F48020086000BF606888B193
:100BD000FFF7D8FD054606E0FFF7D4FD401B64286B
:100BE00001D9032098E7C848006800F400300028C5
:100BF000F2D010E0FFF7C6FD054606E0FFF7C2FDA4
:100C0000401B642801D9032086E7BF48006800F430
:100C100000300028F2D1207800F00200022857D1DD
:100C2000B948406800F00C0050B1B748406800F087
:100C30000C00082818D1B448406800F4803098B9F6
:100C4000B148006800F0020020B12069012801D0FD
:100C5000012061E7AC48006820F0F800616940EAD3
:100C6000C100A949086033E02069E8B10120A74923
:100C70000860FFF787FD054606E0FFF783FD401B90
:100C8000022801D9032047E79F48006800F00200CE
:100C90000028F2D09C48006820F0F800616940EA22
:100CA000C1009949086013E0002098490860FFF7E7
:100CB00069FD054606E0FFF765FD401B022801D9E6
:100CC000032029E79048006800F002000028F2D1D4
:100CD000207800F0080008282DD1A069B8B10120C3
:100CE0008B490860FFF74EFD054606E0FFF74AFD19
:100CF000401B022801D903200EE78348406A00F018
:100D000002000028F2D0012000F0BAF913E0002020
:100D10007F490860FFF736FD054606E0FFF732FD24
:100D2000401B022801D90320F6E67748406A00F00C
:100D300002000028F2D1207800F00400042873D1CA
:100D400000277148C06900F0805070B900BF6E483C
:100D5000C06940F080506C49C8610846C06900F025
:100D60008050009000BF00BF01276A48006800F46F
:100D70008070B0B96748006840F4807065490860C9
:100D8000FFF700FD054606E0FFF7FCFC401B64286A
:100D900001D90320C0E65F48006800F48070002895
:100DA000F2D000BFE068012806D15748006A40F041
:100DB00001005549086227E0E06858B95248006AC6
:100DC00020F00100504908620846006A20F0040043
:100DD000086219E0E06805280BD14B48006A40F032
:100DE0000400494908620846006A40F001000862B0
:100DF0000AE04548006A20F00100434908620846BD
:100E0000006A20F00400086200BFE068A0B1FFF7AC
:100E1000B9FC054609E0FFF7B5FC401B41F28831FB
:100E2000884202D9032077E622E03748006A00F0C2
:100E300002000028EFD012E0FFF7A4FC054608E00E
:100E4000FFF7A0FC401B41F28831884201D9032002
:100E500062E62D48006A00F002000028F0D1012F60
:100E600005D12948C06920F080502749C86100BFDA
:100E7000E069C8B32448406800F00C00082860D03E
:100E8000E069022848D1002020490866FFF77AFC73
:100E9000054606E0FFF776FC401B022801D9032037
:100EA0003AE61948006800F000700028F2D1206A84
:100EB000B0F5803F07D11448406820F40030A168A5
:100EC000084311494860D4E9080108430E494968BC
:100ED00021F4741108430C49486001200B4908664D
:100EE000FFF750FC054607E03DE0FFF74BFC401BD9
:100EF000022801D903200FE60348006800F00070C3
:100F00000028F2D02FE00000001002400000424212
:100F10008004424200700040002014490866FFF738
:100F200031FC054606E0FFF72DFC401B022801D9E5
:100F30000320F1E50E48006800F000700028F2D1AF
:100F400011E0E069012800D1E6E50948466806F4A9
:100F50008031206A814204D106F47011606A8142B6
:100F600001D00120D8E50020D6E500000000424273
:100F70000010024070B504462546681EB0F1807F1F
:100F800001D301200FE0681E4FF0E02148610F21DE
:100F90004FF0FF3000F012F900204FF0E02188619F
:100FA00007200861002070BD00BFFEE770B5054650
:100FB0000C461646802D04D200202060A808306020
:100FC0000CE0284601F0A0FA20602178491F25FA9C
:100FD00001F0203830602068801F206070BD2DE94E
:100FE000F04104460D4616462068802805D20020B0
:100FF00028602068800830601AE0206801F084FAD8
:10100000401F012101FA00F0471E2068384420608B
:10101000206801F079FA28602978491F2068C840C3
:10102000203830602868801F28602068B84320601E
:10103000BDE8F08108B500BF0D48806940F0200090
:101040000B4988610846806900F02000009000BFCD
:1010500000BF00BF0846806940F004008861084670
:10106000806900F00400009000BF00BF08BD0000D0
:101070000010024000BFFEE700BFFEE7704700001F
:1010800008B508490968C9084FF47A72B1FBF2F152
:101090004143009100BF00BF00994A1E0092002901
:1010A000F9D108BD0C000020704710B5FFF770FBA8
:1010B000012000F02DFD10BD00B58FB0282105A83E
:1010C000FFF749F814216846FFF745F8012005901D
:1010D00000040690002007900120099002200C9047
:1010E000C1030D914FF4E0110E9105A8FFF710FD1B
:1010F00008B1FFF703FB0F200090022001900020B1
:1011000002904FF480600390002004900221684612
:10111000FFF700FC08B1FFF7F1FA0FB000BD704710
:1011200000BFFEE70FB4054B10B503A9044A0298AF
:1011300000F032F910BC5DF814FB0000651D0008DA
:10114000800100200FB47CB50C0009AD01D0611EF8
:1011500000E00021CDE90001064B6A4629460898C7
:1011600000F01AF9002C02D0009A002111707CBC0A
:101170005DF814FB9F1A00087CB50C001D4616464E
:10118000014601D0601E00E00020CDE90010064BB2
:101190006A462946304600F0FFF8002C02D0009A3B
:1011A000002111707CBD00009F1A000802480068F1
:1011B000C0F30220704700000CED00E010B50028DD
:1011C00004DB0A07130E054A135406E00A07140E3F
:1011D000034A00F00F031B1FD45410BD00E400E0CD
:1011E00018ED00E002E008C8121F08C1002AFAD179
:1011F00070477047002001E001C1121F002AFBD197
:10120000704700002DE9FF5F82B00021DDE9043066
:10121000020DDDF840B0034318D044F61050A2F29E
:10122000FF3242431514119801281FD0A5EB0B0083
:10123000401C5FEA000A4FF000064E4FDFF838917D
:10124000B046504615D5CAF1000413E011980124A8
:101250004AA3012801D16FEA0B010298119AC0E953
:101260000031C0E9024206B0BDE8F09FCBF10000BA
:10127000DFE704460021404A491842EB0450CDE91B
:10128000001012E0E00707D032463B464046494690
:10129000FFF765F88046894632463B4610461946B8
:1012A000FFF75DF806460F466410002CEAD1DDE931
:1012B0000401DDE90023BAF1000F06DAFFF74FF869
:1012C00042464B46FFF74BF805E0FFF7BAF84246B7
:1012D0004B46FFF7B6F804460E460022284BFFF7B0
:1012E00037F903D84FF0FF30014607E00022254BC5
:1012F00020463146FEF78CFFFFF712F9102409E073
:10130000002C0ADB0A220023FEF751FF039B303238
:101310001A55641E50EA0102F2D1641C039AC4F10A
:1013200011031444119A012A03D0012208430DD15C
:101330000AE0084304D000204FF0110B119072E72F
:10134000A3EB0B056D1E0DE05B4504DD4FF00002C5
:1013500005F1010504E003DA4FF00002A5F10105F3
:10136000002AECD002981199C0E90231C0E9004589
:1013700079E70000000014400000F03F300000005A
:101380000000F0430000E03F00B5012000F02AFC1F
:1013900000BD7047704770472DE9FF4F95B09A46E2
:1013A000884606460025EEE1252877D10024274609
:1013B000F94A0121039400E0044316F8013F203B61
:1013C00001FA03F01042F7D130782A2811D06FF0DB
:1013D0002F033078A0F13002092A16D8039A44F07E
:1013E000020402EB820203EB42021044761C0390DB
:1013F000EFE758F8042B0392002A03DA504244F432
:101400000054039044F00204761C30782E2816D144
:1014100016F8010F44F004042A280DD06FF02F02B3
:101420003078A0F13003092B09D807EB870302EBD2
:101430004303C718761CF3E758F8047B761C307812
:101440006C280FD006DC4C2817D068280DD06A28ED
:1014500014D104E0742810D07A280FD10DE044F4A0
:1014600000140AE044F4801401E044F4401472785B
:10147000824202D104F58014761C761C30786628EE
:101480000BD013DC582877D009DC002875D045280C
:10149000F6D04628F4D047281AD193E118E0632803
:1014A00035D0642879D0652812D18BE1702873D0AB
:1014B00008DC6728F1D069286FD06E280DD06F281E
:1014C00006D1ACE073282CD0752874D0782853D07E
:1014D0005246179990476D1C54E1C4F302500228FC
:1014E00009D003280DD0D8F8001004280DD00D60C5
:1014F00008F1040846E1D8F80010EA17C1E90052E3
:10150000F6E7D8F800100D80F2E70D70F0E718F854
:10151000041B8DF8001000208DF80100EB4601201F
:1015200003E058F804BB4FF0FF3061074FF00001B3
:1015300002D40DE009F101018946B9420FDA814573
:10154000F8DB1BF809100029F4D108E009F10101CA
:1015500089468142FADB1BF809100029F6D103986D
:101560005346A0EB090721463846179A00F080FA47
:10157000284400EB090507E044E008E10DE01BF812
:10158000010B524617999047B9F10109F7D253461A
:1015900021463846179AF2E039E00A21C4F3025294
:1015A0004FF0000B0091022A06D058F8040BC11727
:1015B000032A09D00AE023E008F1070020F007021F
:1015C000F2E80201904605E000B2C117042A01D1F9
:1015D00040B2C117002906DA0A460021404261EBF9
:1015E00002012D2202E0220504D52B228DF80420D1
:1015F000012203E0E20701D02022F7E7914657E0FD
:101600000A2100E010214FF0000B00910BE01021A7
:101610004FF0000B44F004040827009103E0082079
:101620004FF0000B0090C4F30252022A05D058F884
:10163000040B0021032A08D008E008F1070020F07D
:101640000702F2E80201904603E080B2042A00D1CA
:10165000C0B24FF0000922072AD53278702A07D08D
:10166000DDF800C08CF0100C5CEA0B0C05D00EE02D
:1016700040228DF80420012208E050EA010306D040
:1016800030238DF804308DF8052002229146009B0E
:1016900083F0080353EA0B030AD150EA010201D197
:1016A000620705D530228DF804204FF001097F1E16
:1016B0003278582A04D039A20C920CAA02920BE07C
:1016C0003BA2F9E75B46009AFEF771FD0C9B9B5C21
:1016D000029A521E0292137050EA0102F2D102984D
:1016E00004A9081A00F1200B600702D524F4803405
:1016F00000E001275F4502DDA7EB0B0000E00020C2
:1017000000EB0B01009003984944401A0390E0035A
:1017100006D453462146179A039800F0A9F90544C8
:10172000002706E001A85246C05D179990476D1C3E
:101730007F1C4F45F6DBE0030CD553462146179A34
:10174000039800F095F9054404E0302052461799BB
:1017500090476D1C0099481E00900029F5DC08E0B8
:101760000298029952460078491C029117999047B5
:101770006D1CBBF10001ABF1010BF1DC5BE100F092
:1017800065F90544761C307800287FF40DAE19B059
:101790002846BDE8F08F00000928010030313233BF
:1017A000343536373839616263646566000000009D
:1017B0003031323334353637383941424344454687
:1017C00000000000600700D4062708F1070020F0A1
:1017D0000700F0E80223804603F0004C5FEA0C00AB
:1017E00001D097A009E0200501D596A005E0E0070B
:1017F00001D095A001E0AFF24C001390307823F0B7
:10180000004365280CD006DC452809D046281DD0A9
:1018100047287FD13BE0662818D067287AD136E088
:101820000021112F01DB112000E0781CCDE900011F
:1018300004A90CA8FFF7E6FCDDE90D010C9A4FF0B6
:10184000000B07F10109109200914EE04FF00040AB
:101850000097CDE9011004A90CA8FFF7D3FCDDE93E
:101860000D020C9B0F994FF0000B914610930092C4
:1018700011B9791C00EB0109B7EB090003D4C0F1E1
:10188000FF3B07F10109A9EB0700019042E0012F9E
:1018900000DA01270021112F01DD112000E0384678
:1018A000CDE9000104A90CA8FFF7ACFCDDE90D01AE
:1018B0000C9A00914FF0000BB946109221070FD4FB
:1018C000009A4A4503DA914601E0A9F10109B9F10C
:1018D000010F05DD109AA9F10101515C3029F4D006
:1018E000B84202DA10F1040F03DA0121CDE9011048
:1018F00010E0002803DC8344A9EB000102E0411C56
:10190000494500DD8946A0EB0B00401C01904FF0DB
:1019100000400290200705D40198484502DB4FF0B3
:10192000FF30019000208DF84B0002980DF14B071D
:10193000B0F1004F25D002200C902B200D90029882
:1019400000280CDA404202902D200D9007E00A2179
:101950000298FEF716FC3031029007F8011D0C9931
:10196000481E0C900029F2DC02980028EFD1791E65
:101970000D980870307800F0200040F0450007F81E
:10198000020D11A8C01BC01D02901398007800B171
:10199000012000EB0901019801EBE071029801447C
:1019A0000398401A401E0390E00306D45346214694
:1019B000179A039800F05CF805441398007818B162
:1019C0005246179990476D1CE00323D55346214694
:1019D000179A039800F04CF805441BE0BBF1000F88
:1019E00007DB0098584504DD1098179910F80B0094
:1019F00001E0179930205246904701980BF1010BF6
:101A0000401E05F10105019004D12E205246179980
:101A100090476D1CB9F10001A9F10109DEDC05E078
:101A200017F8010B5246179990476D1C0299481EF2
:101A300002900029F4DC53462146179A03989EE64B
:101A40002D0000002B000000200000002DE9F041D7
:101A5000044600251E461746880404D405E039468E
:101A60002020B0476D1C641EF9D52846BDE8F081E2
:101A70002DE9F041044600251E469046C80301D5D5
:101A8000302700E02027880404D505E04146384689
:101A9000B0476D1C641EF9D52846BDE8F0814A6840
:101AA000002A06D00A68531C0B6010704868401E5C
:101AB0004860704710B5421151F8222000F01F0411
:101AC0000123A3409A43431141F8232010BD10B5D0
:101AD000034600F00DF804469C4201D3E31A04E0EB
:101AE000C3F1FF302044431C2344184610BD0000BE
:101AF00000BF0121044A11700449086811460978A1
:101B00000029F6D070470000680100206401002021
:101B10000021044A1170044909680144024A116015
:101B20007047000068010020640100202DE9F041A9
:101B300005460E4617460024202000F015FC0446FA
:101B400014B90020BDE8F08104F118000B494A687F
:101B5000016042604860106000BF00BF2660A56061
:101B60004FF0FF30206100206061FFF7C1FF60602F
:101B7000E7600120024908702046E3E76C0100207D
:101B80005E0100202DE9F04105460120134908704F
:101B90004FF0000815B94046BDE8F08110480468D0
:101BA000266815E0A4F11807AF420FD100BFD4E9B1
:101BB00000100160486000BF00206060206000BF2E
:101BC000384600F0D8F84FF0010804E034462668A3
:101BD00003488442E6D100BF4046DDE75D010020B6
:101BE0006C01002001490870704700005C01002072
:101BF00070B50446207D00F0010008B1002070BDE2
:101C00000025204600F0A0F888B926692069002840
:101C100002DD2069401E2061FFF76AFF6060A06856
:101C200020B11EB1D4E902108847012500BF054844
:101C3000007820B9206910B92046FFF7A3FF284695
:101C4000DDE700005D010020014609B1886908B99F
:101C50000020704788691838FBE700002DE9F04143
:101C60003148007810B10120BDE8F08101202E49F3
:101C700008702E48007818B9002008700220F3E799
:101C8000FFF736FF064656B929480068401C284928
:101C9000086008460068642801D9002008604FF0F9
:101CA000FF3700BF23480468256816E0002022495A
:101CB000087022490870A4F11800214908600846FC
:101CC0000068FFF795FF30B11B48007810B91B483A
:101CD000007800B104E02C46256816488442E5D11E
:101CE00000BF14488442DDD10468256814E0A4F1E3
:101CF00018001349086008460068007D00F00100E4
:101D000040B90846006800F01FF88046B84500D288
:101D1000474600BF2C46256806488442E7D100208C
:101D20000149087038469FE7740100205C010020DB
:101D3000780100206C0100205E0100205D01002080
:101D4000600100200161704730B504466068FFF70C
:101D5000BEFE05462068A84201D8002030BD20689C
:101D6000401BFBE738B504468DF8000069460320A8
:101D7000ABBE204638BD10B50446204600F066FCD8
:101D800010BD2DE9FC4107468846464600200190DB
:101D900000900FB9BDE8FC81A7F10805686840F024
:101DA0000100686000BF7168686820F003000830B7
:101DB000081A706000BF0020A8600021E960686810
:101DC00020F0030105F108000C18207900F0010053
:101DD00000284CD0616821F003006A4601A9FFF792
:101DE000E5F800BFE06810B1D4E902108160A06896
:101DF00010B1D4E90201C16006F17400019900EB51
:101E0000C110009950F82100A04224D106F17400BD
:101E1000E168019A00EBC210009A40F8221006F126
:101E20007400019900EBC110009950F8210090B99D
:101E300006F11400019A00EB82010098FFF73AFEC8
:101E400006F11400019950F8210020B906F11001A3
:101E50000198FFF72FFE0020A0600021E16000BF85
:101E60006968606820F003000830084468602879D9
:101E700000F0020000284ED02C68616821F00300B9
:101E80006A4601A9FFF792F800BFE06810B1D4E9F3
:101E900002108160A06810B1D4E90201C16006F1AE
:101EA0007400019900EBC110009950F82100A04284
:101EB00024D106F17400E168019A00EBC210009A87
:101EC00040F8221006F17400019900EBC11000994E
:101ED00050F8210090B906F11400019A00EB82013C
:101EE0000098FFF7E7FD06F11400019950F8210072
:101EF00020B906F110010198FFF7DCFD0020A06079
:101F00000021E16000BF6168686820F003000830CC
:101F1000084460602546696821F003006A4601A90B
:101F2000FFF744F800BF0020A86006F17400019993
:101F300000EBC110009950F82110E96006F174001F
:101F4000019900EBC110009950F8210040B106F151
:101F50007400019900EBC110009950F821008560D0
:101F600006F17400019900EBC110009940F821506E
:101F700006F11400019A00EB8201009800F007FBC3
:101F800006F11001019800F002FB00BF686820F024
:101F9000030105F108000C18606840F00200606061
:101FA000256000BFF6E601464868704710B5024854
:101FB000FFF7F9FF10BD00008401002010B50449AF
:101FC0004FF4205000F006F80446204610BD0000F3
:101FD000840100202DE9F04107460C4624B11FB1D1
:101FE00040F6B440874206D226A0FFF79BF84FF098
:101FF000FF30BDE8F08104F0030028B12CA0FFF70A
:1020000091F84FF0FF30F4E725462C463749286811
:10201000884208D136480460006800F67846706847
:1020200020F00300E5E73248046040F674412046A2
:10203000FEF791F82D48286000BF00BFA7F6744056
:1020400020F0070104F6784000F07AFA8046D8F8CC
:10205000040020F0030108F108000E18294606F1DB
:102060000800FFF78EFE08F10800E860706820F0B5
:102070000300381A68606868A860706820F0030080
:10208000B7E70000696E69745F6D656D6F72795FA7
:10209000706F6F6C2028293A206D656D6F72795FC3
:1020A000706F6F6C20696E76616C69640A00000065
:1020B000696E69745F6D656D6F72795F706F6F6C5B
:1020C0002028293A206D656D5F706F6F6C206D75EB
:1020D000737420626520616C69676E656420746F3B
:1020E000206120776F72640A0000000059FA592AB3
:1020F0007C0100202DE9FE4F06468846934699460E
:102100005A494868804700240027584D0C35002064
:10211000019002904FF0020A291955A2204600F0C2
:10212000C1F80444534850F826202919204600F0ED
:10213000B9F80444291950A2204600F0B3F8044429
:102140004E4850F826202919204600F0ABF80444E8
:1021500029194BA2204600F0A5F80444291946A2EB
:10216000204600F09FF8044429194246204600F01A
:1021700099F80444291942A2204600F093F8044437
:1021800029193DA2204600F08DF8044429194A4639
:10219000204600F087F8044429193AA2204600F0AE
:1021A00081F8044429195A46204600F07BF804447B
:1021B000291936A2204600F075F8044434A20521FE
:1021C00001A80C9BFEF7BEFF291901AA204600F0CA
:1021D00069F8044429192DA2204600F063F804444C
:1021E000291927A2204600F05DF80444291929A2E4
:1021F000204600F057F804440EA80090C4F5807102
:102200002819009B0D9AFEF7B7FF074600200090A3
:10221000E019B0F5807F03DC002F01DB3C4401E0D6
:102220004FF48074201D5044B0F5807F04D94FF4E2
:102230008074241FA4EB0A04291917A2204600F079
:1022400031F80444291916A2204600F02BF8044462
:102250000648006820B10548214602682846904794
:10226000024988688047BDE8FE8F000020000020FA
:102270001B5B00002C0100205B00000044010020DB
:102280005D00000028293B20000000003A0000000B
:10229000256C6400202D20001B5B306D00000000C9
:1022A0000D0A000030B50346144609E018465B1CD1
:1022B000FF2804D812F8010B01F8010B00E002E03E
:1022C00010780028F2D100BF101B30BD10B50246B7
:1022D000504202EA0001B1F5803F05D2FF2901D842
:1022E000002007E0082005E0B1F1807F01D2102036
:1022F00000E01820034621FA03F0024C54F82000B5
:10230000184410BDBC260008FEF74EFAFEF7D4FEB6
:10231000FEF790FE00F002F800BFFEE7FFF74EFE6A
:10232000FFF732F800224FF47A710B48FFF7FEFBFB
:102330000A49086000224FF47A710948FFF7F6FB5A
:1023400008490860052105480068FFF7FBFC01E02B
:10235000FFF784FCFCE70000A9250008140000201A
:10236000252600081800002010B50446204600F07D
:102370007BF910BD2DE9F34383B089464C460398A1
:10238000082801D2082003E00398C01D20F00700B0
:10239000039001AA02A903A8FEF721FE01AA02A93F
:1023A0002046FEF7AEF905461DB9002005B0BDE890
:1023B000F08300BF04F17400E968029A00EBC210D8
:1023C000019A40F8221004F17400029900EBC11048
:1023D000019950F8210050B1002104F17400029AD3
:1023E00000EBC210019A50F82200816012E004F163
:1023F0001400029A00EB82010198FFF75BFB04F1E5
:102400001400029950F8210020B904F1100102983B
:10241000FFF750FB0020A8600021E96000BF68685A
:1024200020F0030105F1080001EB0008686820F0C6
:1024300003000399471A102F49D3083F05F10800FC
:102440000399461847F001007060C8F8006001AABF
:1024500002A93846FEF7AAFD00BF0020B06004F1D3
:102460007400029900EBC110019950F82110F1603D
:1024700004F17400029900EBC110019950F8210099
:1024800040B104F17400029900EBC110019950F8B9
:102490002100866004F17400029900EBC1100199DB
:1024A00040F8216004F11400029A00EB82010198C7
:1024B00000F06DF804F11001029800F068F800BF18
:1024C000287900F0020003990843686009E0D8F811
:1024D000040020F00200C8F80400686820F0010041
:1024E000686000BF6168686820F003000830084435
:1024F0006060D4E90101884201D96068A06000BF32
:1025000005F1080052E7000010B502461146B1F58A
:10251000803F05D2FF2901D8002007E0082005E010
:10252000B1F1807F01D2102000E01820034621FA8B
:1025300003F0024C54F82000184410BDBC260008DB
:10254000F0B50C46024608265660566826F003078A
:1025500002F10806B919A4F11806576827F0030715
:10256000F61B26F007064E600027CF608F604E688E
:1025700026F0030701F10806BB19196002265E6008
:1025800002F1080500266E602B601046F0BD10B504
:10259000421151F8222000F01F040123A3401A43E6
:1025A000431141F8232010BD7CB505462F2111A011
:1025B000FDF7DCFD28B12F210EA0FDF7D7FD401C53
:1025C0000BE05C210BA0FDF7D1FD28B15C2109A037
:1025D000FDF7CCFD401C00E006A004460BA0332113
:1025E0000D4B2246CDE900100CA10020FFF782FD23
:1025F0007CBD00002E2E5C2E2E5C736F75726365A1
:102600005C6D61696E5F6170702E630068656C6CF3
:102610006F20776F726C6400B22600084E4F5F54D3
:102620004147000010B5044605480068FFF70CFB61
:1026300004490860FFF7BAFC0349086010BD0000B8
:10264000140000201C0000201000002010B50446DB
:1026500000BF00BF034801682046FFF792FB00BFA0
:1026600000BF10BD7C01002070B5054600BF00BF53
:10267000044801682846FFF77DFE044600BF00BFFE
:10268000204670BD7C0100200203040506070809EE
:102690000A0B0C0D0E0F10100102000000000000CC
:1026A00000000102030406070809000000000102FF
:1026B000030474696D6572315F636200FFFFFFFFA1
:1026C0000000000001000000010000000200000006
:1026D00002000000020000000200000003000000F1
:1026E00003000000030000000300000003000000DE
:1026F00003000000030000000300000004000000CD
:1027000004000000040000000400000004000000B9
:1027100004000000040000000400000004000000A9
:102720000400000004000000040000000400000099
:102730000400000004000000040000000500000088
:102740000500000005000000050000000500000075
:102750000500000005000000050000000500000065
:102760000500000005000000050000000500000055
:102770000500000005000000050000000500000045
:102780000500000005000000050000000500000035
:102790000500000005000000050000000500000025
:1027A0000500000005000000050000000500000015
:1027B0000500000005000000050000000600000004
:1027C00006000000060000000600000006000000F1
:1027D00006000000060000000600000006000000E1
:1027E00006000000060000000600000006000000D1
:1027F00006000000060000000600000006000000C1
:1028000006000000060000000600000006000000B0
:1028100006000000060000000600000006000000A0
:102820000600000006000000060000000600000090
:102830000600000006000000060000000600000080
:102840000600000006000000060000000600000070
:102850000600000006000000060000000600000060
:102860000600000006000000060000000600000050
:102870000600000006000000060000000600000040
:102880000600000006000000060000000600000030
:102890000600000006000000060000000600000020
:1028A0000600000006000000060000000600000010
:1028B00006000000060000000600000007000000FF
:1028C00007000000070000000700000007000000EC
:1028D00007000000070000000700000007000000DC
:1028E00007000000070000000700000007000000CC
:1028F00007000000070000000700000007000000BC
:1029000007000000070000000700000007000000AB
:10291000070000000700000007000000070000009B
:10292000070000000700000007000000070000008B
:10293000070000000700000007000000070000007B
:10294000070000000700000007000000070000006B
:10295000070000000700000007000000070000005B
:10296000070000000700000007000000070000004B
:10297000070000000700000007000000070000003B
:10298000070000000700000007000000070000002B
:10299000070000000700000007000000070000001B
:1029A000070000000700000007000000070000000B
:1029B00007000000070000000700000007000000FB
:1029C00007000000070000000700000007000000EB
:1029D00007000000070000000700000007000000DB
:1029E00007000000070000000700000007000000CB
:1029F00007000000070000000700000007000000BB
:102A000007000000070000000700000007000000AA
:102A1000070000000700000007000000070000009A
:102A2000070000000700000007000000070000008A
:102A3000070000000700000007000000070000007A
:102A4000070000000700000007000000070000006A
:102A5000070000000700000007000000070000005A
:102A6000070000000700000007000000070000004A
:102A7000070000000700000007000000070000003A
:102A8000070000000700000007000000070000002A
:102A9000070000000700000007000000070000001A
:102AA000070000000700000007000000070000000A
:102AB00007000000070000000700000056455242D2
:102AC0004F53450044454255470000005741524E80
:102AD00000000000494E464F000000004552524F92
:102AE00052000000415353455254000033313B32F1
:102AF000326D000033323B32326D000033333B32F3
:102B0000326D000033343B32326D000033353B32DE
:102B1000326D000033363B32326D00003C2B000832
:102B20000000002084010000A0060008842B00089B
:102B300084010020042C0000F411000841321042EE
:102B400001031124F41395131B0893041A9704012D
:102B5000FF11130C2B1408EC2A1B08FC041A140C8C
:102B60001AF4081A04081AE4081ADC041ACC041A25
:102B7000D4041AC4041ABC040110136C012A2004E2
:042B80000110000040
:04000005080000ED02
:00000001FF
